:100000000C9446000C9463000C9463000C94630001
:100010000C9463000C9463000C9463000C946300D4
:100020000C9463000C9463000C9463000C946300C4
:100030000C9463000C9463000C9463000C946300B4
:100040000C9463000C9463000C9463000C946300A4
:100050000C9463000C9463000C9463000C94630094
:100060000C9463000C9463000C9463000C94630084
:100070000C9463000C9463000C9463000C94630074
:100080000C9463000C9463000C94630011241FBE55
:10009000CFEFD0E1DEBFCDBF11E0A0E0B1E0E2E202
:1000A000F5E002C005900D92AC37B107D9F711E029
:1000B000ACE7B1E001C01D92A238B107E1F70E94A0
:1000C00033020C948F020C94000020917C0190E08C
:1000D00002C09F5F2AE09817E0F320937C01909381
:1000E0007D010895DA9A8AEF0E946500DA980895F2
:1000F0000F931F93082F8BB384708BBB802F807F4F
:100100008BBB0E94720010E00F70107084E0000F33
:10011000111F8A95E1F70BBB0E9472001F910F918E
:1001200008951F93182F81E08BBB8BB382708BBB1C
:10013000812F807F81608BBB0E9472001295107F9F
:1001400011601BBB0E9472001F910895EF92FF92F5
:100150001F93CF93DF937C0181E08BBB8BB38270C5
:100160008BBB10E013C0103119F480EC0E947800B2
:100170008881807F81608BBB0E947200888182951C
:10018000807F81608BBB0E9472001F5FE701C10FFF
:10019000D11D8881882339F7DF91CF911F91FF907E
:1001A000EF90089580580E947800089580540E942E
:1001B00078000895893021F40E94910089E006C0FA
:1001C0008A3021F480E00E94D60008950E949100B8
:1001D0000895EF92FF920F931F93182F64E60E94E9
:1001E0005C02482F282F30E08CE99FEF289F700198
:1001F000299FF00C389FF00C1124C701810F911D2D
:100200006AE070E00E946802062F842F805D0E94E1
:10021000DA00802F805D0E94DA00105D1E0D86EFEF
:100220009FEF089F002D1124802F810F0E94DA007C
:100230001F910F91FF90EF90089580917E018BBBED
:1002400008950AC020E030E000002F5F3F4F4CE0EF
:100250002C3C3407C9F701970097A1F708958BB399
:1002600080937E018FEF8ABB8FE090E00E94210196
:100270008BB384708BBB80E28BBB81E00E947800E3
:100280008FE00E94780082E00E94780080E80E945F
:1002900078008FE090E00E942101089540E020E086
:1002A0003AE055E089B38F3F31F486B390E0837034
:1002B0009070892BB9F789B38E3F31F489B38823C5
:1002C000E9F3239F202D112489B38D3F39F489B39D
:1002D0008823E9F3239F202D11242F5F89B38B3FBF
:1002E00049F489B38823E9F3259FC00111240196BD
:1002F000282F220F89B3873F39F489B38823E9F384
:10030000239F202D11242D5F89B38F3E39F489B3AB
:100310008823E9F3239F202D11242C5F89B38F3D7F
:1003200039F489B38823E9F3239F202D11242B5F0F
:1003300089B38F3B39F489B38823E9F3239F202DB8
:1003400011242A5F89B38F3739F489B38823E9F3FD
:10035000239F202D1124295F86B38370823041F4BE
:1003600086B383708330E1F7239F202D1124285F0B
:1003700086B38370813041F486B383708330E1F7B4
:10038000239F202D1124275F4F5F433008F48ACF2D
:10039000822F08950E942F0180E00E94D20080E009
:1003A00091E00E94A6000E944E0190917F01891762
:1003B00049F4809180010E94E900809181010E94AE
:1003C000E900089580E00E94D2008FE091E00E9451
:1003D000A60008950E942F0180E00E94D20080E0D4
:1003E00091E00E94A6000E944E0190917F01891722
:1003F00051F4109281011092800180E00E94D2009D
:100400008EE191E005C080E00E94D2008FE091E093
:100410000E94A60008950E942F0180E00E94D20051
:100420008EE291E00E94A6000E944E0190917F0111
:10043000891789F480E00E94D20082E491E00E9452
:10044000A6000E944E0180937F0180E00E94D200AE
:1004500086E591E005C080E00E94D2008AE691E046
:100460000E94A600089510928101109280011092BE
:100470007F011ABA80EC87BB88B38FEF88BB9BB330
:100480008BBB0EC0B29903C00E94EA0109C0B399A8
:1004900003C00E94CA0104C0B49902C00E940B02AA
:1004A000B599F0CF809181018F5F80938101B59BD9
:1004B000FECF80E090E00895991B79E004C0991F79
:1004C000961708F0961B881F7A95C9F780950895AE
:1004D00097FB092E07260AD077FD04D00CD006D052
:1004E00000201AF4709561957F4F0895F6F7909566
:1004F00081959F4F0895AA1BBB1B51E107C0AA1FFE
:10050000BB1FA617B70710F0A61BB70B881F991FB4
:100510005A95A9F780959095BC01CD010895F8945E
:02052000FFCF0B
:10052200456E7465722050617373576F7264005721
:10053200726F6E672050617373576F726400436FFE
:10054200756E746572207265736574656400456EBC
:10055200746572204F6C642070617373776F72647C
:100562003A00456E746572204E6577207061737330
:10057200776F72643A004E65772050617373776FBC
:100582007264205365742121210057726F6E6720B7
:0C05920070617373776F72642121210087
:00000001FF
